{
  "_format": "hh-sol-artifact-1",
  "contractName": "InputNFT",
  "sourceName": "contracts/ERC721.sol",
  "abi": [
    {
      "inputs": [
        {
          "internalType": "string",
          "name": "name",
          "type": "string"
        },
        {
          "internalType": "string",
          "name": "symbol",
          "type": "string"
        }
      ],
      "stateMutability": "nonpayable",
      "type": "constructor"
    },
    {
      "anonymous": false,
      "inputs": [
        {
          "indexed": true,
          "internalType": "address",
          "name": "owner",
          "type": "address"
        },
        {
          "indexed": true,
          "internalType": "address",
          "name": "approved",
          "type": "address"
        },
        {
          "indexed": true,
          "internalType": "uint256",
          "name": "tokenId",
          "type": "uint256"
        }
      ],
      "name": "Approval",
      "type": "event"
    },
    {
      "anonymous": false,
      "inputs": [
        {
          "indexed": true,
          "internalType": "address",
          "name": "owner",
          "type": "address"
        },
        {
          "indexed": true,
          "internalType": "address",
          "name": "operator",
          "type": "address"
        },
        {
          "indexed": false,
          "internalType": "bool",
          "name": "approved",
          "type": "bool"
        }
      ],
      "name": "ApprovalForAll",
      "type": "event"
    },
    {
      "anonymous": false,
      "inputs": [
        {
          "indexed": true,
          "internalType": "address",
          "name": "from",
          "type": "address"
        },
        {
          "indexed": true,
          "internalType": "address",
          "name": "to",
          "type": "address"
        },
        {
          "indexed": true,
          "internalType": "uint256",
          "name": "tokenId",
          "type": "uint256"
        }
      ],
      "name": "Transfer",
      "type": "event"
    },
    {
      "inputs": [
        {
          "internalType": "address",
          "name": "to",
          "type": "address"
        },
        {
          "internalType": "uint256",
          "name": "tokenId",
          "type": "uint256"
        }
      ],
      "name": "approve",
      "outputs": [],
      "stateMutability": "nonpayable",
      "type": "function"
    },
    {
      "inputs": [
        {
          "internalType": "address",
          "name": "owner",
          "type": "address"
        }
      ],
      "name": "balanceOf",
      "outputs": [
        {
          "internalType": "uint256",
          "name": "",
          "type": "uint256"
        }
      ],
      "stateMutability": "view",
      "type": "function"
    },
    {
      "inputs": [
        {
          "internalType": "uint256",
          "name": "tokenId",
          "type": "uint256"
        }
      ],
      "name": "getApproved",
      "outputs": [
        {
          "internalType": "address",
          "name": "",
          "type": "address"
        }
      ],
      "stateMutability": "view",
      "type": "function"
    },
    {
      "inputs": [
        {
          "internalType": "address",
          "name": "owner",
          "type": "address"
        },
        {
          "internalType": "address",
          "name": "operator",
          "type": "address"
        }
      ],
      "name": "isApprovedForAll",
      "outputs": [
        {
          "internalType": "bool",
          "name": "",
          "type": "bool"
        }
      ],
      "stateMutability": "view",
      "type": "function"
    },
    {
      "inputs": [],
      "name": "name",
      "outputs": [
        {
          "internalType": "string",
          "name": "",
          "type": "string"
        }
      ],
      "stateMutability": "view",
      "type": "function"
    },
    {
      "inputs": [
        {
          "internalType": "uint256",
          "name": "tokenId",
          "type": "uint256"
        }
      ],
      "name": "ownerOf",
      "outputs": [
        {
          "internalType": "address",
          "name": "",
          "type": "address"
        }
      ],
      "stateMutability": "view",
      "type": "function"
    },
    {
      "inputs": [
        {
          "internalType": "address",
          "name": "to",
          "type": "address"
        },
        {
          "internalType": "uint256",
          "name": "tokenId",
          "type": "uint256"
        }
      ],
      "name": "safeMint",
      "outputs": [],
      "stateMutability": "nonpayable",
      "type": "function"
    },
    {
      "inputs": [
        {
          "internalType": "address",
          "name": "from",
          "type": "address"
        },
        {
          "internalType": "address",
          "name": "to",
          "type": "address"
        },
        {
          "internalType": "uint256",
          "name": "tokenId",
          "type": "uint256"
        }
      ],
      "name": "safeTransferFrom",
      "outputs": [],
      "stateMutability": "nonpayable",
      "type": "function"
    },
    {
      "inputs": [
        {
          "internalType": "address",
          "name": "from",
          "type": "address"
        },
        {
          "internalType": "address",
          "name": "to",
          "type": "address"
        },
        {
          "internalType": "uint256",
          "name": "tokenId",
          "type": "uint256"
        },
        {
          "internalType": "bytes",
          "name": "data",
          "type": "bytes"
        }
      ],
      "name": "safeTransferFrom",
      "outputs": [],
      "stateMutability": "nonpayable",
      "type": "function"
    },
    {
      "inputs": [
        {
          "internalType": "address",
          "name": "operator",
          "type": "address"
        },
        {
          "internalType": "bool",
          "name": "approved",
          "type": "bool"
        }
      ],
      "name": "setApprovalForAll",
      "outputs": [],
      "stateMutability": "nonpayable",
      "type": "function"
    },
    {
      "inputs": [
        {
          "internalType": "bytes4",
          "name": "interfaceId",
          "type": "bytes4"
        }
      ],
      "name": "supportsInterface",
      "outputs": [
        {
          "internalType": "bool",
          "name": "",
          "type": "bool"
        }
      ],
      "stateMutability": "view",
      "type": "function"
    },
    {
      "inputs": [],
      "name": "symbol",
      "outputs": [
        {
          "internalType": "string",
          "name": "",
          "type": "string"
        }
      ],
      "stateMutability": "view",
      "type": "function"
    },
    {
      "inputs": [
        {
          "internalType": "uint256",
          "name": "tokenId",
          "type": "uint256"
        }
      ],
      "name": "tokenURI",
      "outputs": [
        {
          "internalType": "string",
          "name": "",
          "type": "string"
        }
      ],
      "stateMutability": "view",
      "type": "function"
    },
    {
      "inputs": [
        {
          "internalType": "address",
          "name": "from",
          "type": "address"
        },
        {
          "internalType": "address",
          "name": "to",
          "type": "address"
        },
        {
          "internalType": "uint256",
          "name": "tokenId",
          "type": "uint256"
        }
      ],
      "name": "transferFrom",
      "outputs": [],
      "stateMutability": "nonpayable",
      "type": "function"
    }
  ],
  "bytecode": "0x60806040523480156200001157600080fd5b50604051620028c2380380620028c28339818101604052810190620000379190620002c2565b818181600090805190602001906200005192919062000075565b5080600190805190602001906200006a92919062000075565b5050505050620003ac565b828054620000839062000376565b90600052602060002090601f016020900481019282620000a75760008555620000f3565b82601f10620000c257805160ff1916838001178555620000f3565b82800160010185558215620000f3579182015b82811115620000f2578251825591602001919060010190620000d5565b5b50905062000102919062000106565b5090565b5b808211156200012157600081600090555060010162000107565b5090565b6000604051905090565b600080fd5b600080fd5b600080fd5b600080fd5b6000601f19601f8301169050919050565b7f4e487b7100000000000000000000000000000000000000000000000000000000600052604160045260246000fd5b6200018e8262000143565b810181811067ffffffffffffffff82111715620001b057620001af62000154565b5b80604052505050565b6000620001c562000125565b9050620001d3828262000183565b919050565b600067ffffffffffffffff821115620001f657620001f562000154565b5b620002018262000143565b9050602081019050919050565b60005b838110156200022e57808201518184015260208101905062000211565b838111156200023e576000848401525b50505050565b60006200025b6200025584620001d8565b620001b9565b9050828152602081018484840111156200027a57620002796200013e565b5b620002878482856200020e565b509392505050565b600082601f830112620002a757620002a662000139565b5b8151620002b984826020860162000244565b91505092915050565b60008060408385031215620002dc57620002db6200012f565b5b600083015167ffffffffffffffff811115620002fd57620002fc62000134565b5b6200030b858286016200028f565b925050602083015167ffffffffffffffff8111156200032f576200032e62000134565b5b6200033d858286016200028f565b9150509250929050565b7f4e487b7100000000000000000000000000000000000000000000000000000000600052602260045260246000fd5b600060028204905060018216806200038f57607f821691505b60208210811415620003a657620003a562000347565b5b50919050565b61250680620003bc6000396000f3fe608060405234801561001057600080fd5b50600436106100ea5760003560e01c806370a082311161008c578063a22cb46511610066578063a22cb4651461025b578063b88d4fde14610277578063c87b56dd14610293578063e985e9c5146102c3576100ea565b806370a08231146101f157806395d89b4114610221578063a14481941461023f576100ea565b8063095ea7b3116100c8578063095ea7b31461016d57806323b872dd1461018957806342842e0e146101a55780636352211e146101c1576100ea565b806301ffc9a7146100ef57806306fdde031461011f578063081812fc1461013d575b600080fd5b61010960048036038101906101049190611665565b6102f3565b60405161011691906116ad565b60405180910390f35b6101276103d5565b6040516101349190611761565b60405180910390f35b610157600480360381019061015291906117b9565b610467565b6040516101649190611827565b60405180910390f35b6101876004803603810190610182919061186e565b6104ad565b005b6101a3600480360381019061019e91906118ae565b6105c5565b005b6101bf60048036038101906101ba91906118ae565b610625565b005b6101db60048036038101906101d691906117b9565b610645565b6040516101e89190611827565b60405180910390f35b61020b60048036038101906102069190611901565b6106f7565b604051610218919061193d565b60405180910390f35b6102296107af565b6040516102369190611761565b60405180910390f35b6102596004803603810190610254919061186e565b610841565b005b61027560048036038101906102709190611984565b61084f565b005b610291600480360381019061028c9190611af9565b610865565b005b6102ad60048036038101906102a891906117b9565b6108c7565b6040516102ba9190611761565b60405180910390f35b6102dd60048036038101906102d89190611b7c565b61092f565b6040516102ea91906116ad565b60405180910390f35b60007f80ac58cd000000000000000000000000000000000000000000000000000000007bffffffffffffffffffffffffffffffffffffffffffffffffffffffff1916827bffffffffffffffffffffffffffffffffffffffffffffffffffffffff191614806103be57507f5b5e139f000000000000000000000000000000000000000000000000000000007bffffffffffffffffffffffffffffffffffffffffffffffffffffffff1916827bffffffffffffffffffffffffffffffffffffffffffffffffffffffff1916145b806103ce57506103cd826109c3565b5b9050919050565b6060600080546103e490611beb565b80601f016020809104026020016040519081016040528092919081815260200182805461041090611beb565b801561045d5780601f106104325761010080835404028352916020019161045d565b820191906000526020600020905b81548152906001019060200180831161044057829003601f168201915b5050505050905090565b600061047282610a2d565b6004600083815260200190815260200160002060009054906101000a900473ffffffffffffffffffffffffffffffffffffffff169050919050565b60006104b882610645565b90508073ffffffffffffffffffffffffffffffffffffffff168373ffffffffffffffffffffffffffffffffffffffff161415610529576040517f08c379a000000000000000000000000000000000000000000000000000000000815260040161052090611c8f565b60405180910390fd5b8073ffffffffffffffffffffffffffffffffffffffff16610548610a78565b73ffffffffffffffffffffffffffffffffffffffff161480610577575061057681610571610a78565b61092f565b5b6105b6576040517f08c379a00000000000000000000000000000000000000000000000000000000081526004016105ad90611d21565b60405180910390fd5b6105c08383610a80565b505050565b6105d66105d0610a78565b82610b39565b610615576040517f08c379a000000000000000000000000000000000000000000000000000000000815260040161060c90611db3565b60405180910390fd5b610620838383610bce565b505050565b61064083838360405180602001604052806000815250610865565b505050565b6000806002600084815260200190815260200160002060009054906101000a900473ffffffffffffffffffffffffffffffffffffffff169050600073ffffffffffffffffffffffffffffffffffffffff168173ffffffffffffffffffffffffffffffffffffffff1614156106ee576040517f08c379a00000000000000000000000000000000000000000000000000000000081526004016106e590611e1f565b60405180910390fd5b80915050919050565b60008073ffffffffffffffffffffffffffffffffffffffff168273ffffffffffffffffffffffffffffffffffffffff161415610768576040517f08c379a000000000000000000000000000000000000000000000000000000000815260040161075f90611eb1565b60405180910390fd5b600360008373ffffffffffffffffffffffffffffffffffffffff1673ffffffffffffffffffffffffffffffffffffffff168152602001908152602001600020549050919050565b6060600180546107be90611beb565b80601f01602080910402602001604051908101604052809291908181526020018280546107ea90611beb565b80156108375780601f1061080c57610100808354040283529160200191610837565b820191906000526020600020905b81548152906001019060200180831161081a57829003601f168201915b5050505050905090565b61084b8282610e35565b5050565b61086161085a610a78565b8383610e53565b5050565b610876610870610a78565b83610b39565b6108b5576040517f08c379a00000000000000000000000000000000000000000000000000000000081526004016108ac90611db3565b60405180910390fd5b6108c184848484610fc0565b50505050565b60606108d282610a2d565b60006108dc61101c565b905060008151116108fc5760405180602001604052806000815250610927565b8061090684611033565b604051602001610917929190611f0d565b6040516020818303038152906040525b915050919050565b6000600560008473ffffffffffffffffffffffffffffffffffffffff1673ffffffffffffffffffffffffffffffffffffffff16815260200190815260200160002060008373ffffffffffffffffffffffffffffffffffffffff1673ffffffffffffffffffffffffffffffffffffffff16815260200190815260200160002060009054906101000a900460ff16905092915050565b60007f01ffc9a7000000000000000000000000000000000000000000000000000000007bffffffffffffffffffffffffffffffffffffffffffffffffffffffff1916827bffffffffffffffffffffffffffffffffffffffffffffffffffffffff1916149050919050565b610a3681611194565b610a75576040517f08c379a0000000000000000000000000000000000000000000000000000000008152600401610a6c90611e1f565b60405180910390fd5b50565b600033905090565b816004600083815260200190815260200160002060006101000a81548173ffffffffffffffffffffffffffffffffffffffff021916908373ffffffffffffffffffffffffffffffffffffffff160217905550808273ffffffffffffffffffffffffffffffffffffffff16610af383610645565b73ffffffffffffffffffffffffffffffffffffffff167f8c5be1e5ebec7d5bd14f71427d1e84f3dd0314c0f7b2291e5b200ac8c7c3b92560405160405180910390a45050565b600080610b4583610645565b90508073ffffffffffffffffffffffffffffffffffffffff168473ffffffffffffffffffffffffffffffffffffffff161480610b875750610b86818561092f565b5b80610bc557508373ffffffffffffffffffffffffffffffffffffffff16610bad84610467565b73ffffffffffffffffffffffffffffffffffffffff16145b91505092915050565b8273ffffffffffffffffffffffffffffffffffffffff16610bee82610645565b73ffffffffffffffffffffffffffffffffffffffff1614610c44576040517f08c379a0000000000000000000000000000000000000000000000000000000008152600401610c3b90611fa3565b60405180910390fd5b600073ffffffffffffffffffffffffffffffffffffffff168273ffffffffffffffffffffffffffffffffffffffff161415610cb4576040517f08c379a0000000000000000000000000000000000000000000000000000000008152600401610cab90612035565b60405180910390fd5b610cbf838383611200565b610cca600082610a80565b6001600360008573ffffffffffffffffffffffffffffffffffffffff1673ffffffffffffffffffffffffffffffffffffffff1681526020019081526020016000206000828254610d1a9190612084565b925050819055506001600360008473ffffffffffffffffffffffffffffffffffffffff1673ffffffffffffffffffffffffffffffffffffffff1681526020019081526020016000206000828254610d7191906120b8565b92505081905550816002600083815260200190815260200160002060006101000a81548173ffffffffffffffffffffffffffffffffffffffff021916908373ffffffffffffffffffffffffffffffffffffffff160217905550808273ffffffffffffffffffffffffffffffffffffffff168473ffffffffffffffffffffffffffffffffffffffff167fddf252ad1be2c89b69c2b068fc378daa952ba7f163c4a11628f55a4df523b3ef60405160405180910390a4610e30838383611205565b505050565b610e4f82826040518060200160405280600081525061120a565b5050565b8173ffffffffffffffffffffffffffffffffffffffff168373ffffffffffffffffffffffffffffffffffffffff161415610ec2576040517f08c379a0000000000000000000000000000000000000000000000000000000008152600401610eb99061215a565b60405180910390fd5b80600560008573ffffffffffffffffffffffffffffffffffffffff1673ffffffffffffffffffffffffffffffffffffffff16815260200190815260200160002060008473ffffffffffffffffffffffffffffffffffffffff1673ffffffffffffffffffffffffffffffffffffffff16815260200190815260200160002060006101000a81548160ff0219169083151502179055508173ffffffffffffffffffffffffffffffffffffffff168373ffffffffffffffffffffffffffffffffffffffff167f17307eab39ab6107e8899845ad3d59bd9653f200f220920489ca2b5937696c3183604051610fb391906116ad565b60405180910390a3505050565b610fcb848484610bce565b610fd784848484611265565b611016576040517f08c379a000000000000000000000000000000000000000000000000000000000815260040161100d906121ec565b60405180910390fd5b50505050565b606060405180602001604052806000815250905090565b6060600082141561107b576040518060400160405280600181526020017f3000000000000000000000000000000000000000000000000000000000000000815250905061118f565b600082905060005b600082146110ad5780806110969061220c565b915050600a826110a69190612284565b9150611083565b60008167ffffffffffffffff8111156110c9576110c86119ce565b5b6040519080825280601f01601f1916602001820160405280156110fb5781602001600182028036833780820191505090505b5090505b60008514611188576001826111149190612084565b9150600a8561112391906122b5565b603061112f91906120b8565b60f81b818381518110611145576111446122e6565b5b60200101907effffffffffffffffffffffffffffffffffffffffffffffffffffffffffffff1916908160001a905350600a856111819190612284565b94506110ff565b8093505050505b919050565b60008073ffffffffffffffffffffffffffffffffffffffff166002600084815260200190815260200160002060009054906101000a900473ffffffffffffffffffffffffffffffffffffffff1673ffffffffffffffffffffffffffffffffffffffff1614159050919050565b505050565b505050565b61121483836113fc565b6112216000848484611265565b611260576040517f08c379a0000000000000000000000000000000000000000000000000000000008152600401611257906121ec565b60405180910390fd5b505050565b60006112868473ffffffffffffffffffffffffffffffffffffffff166115d6565b156113ef578373ffffffffffffffffffffffffffffffffffffffff1663150b7a026112af610a78565b8786866040518563ffffffff1660e01b81526004016112d1949392919061236a565b602060405180830381600087803b1580156112eb57600080fd5b505af192505050801561131c57506040513d601f19601f8201168201806040525081019061131991906123cb565b60015b61139f573d806000811461134c576040519150601f19603f3d011682016040523d82523d6000602084013e611351565b606091505b50600081511415611397576040517f08c379a000000000000000000000000000000000000000000000000000000000815260040161138e906121ec565b60405180910390fd5b805181602001fd5b63150b7a0260e01b7bffffffffffffffffffffffffffffffffffffffffffffffffffffffff1916817bffffffffffffffffffffffffffffffffffffffffffffffffffffffff1916149150506113f4565b600190505b949350505050565b600073ffffffffffffffffffffffffffffffffffffffff168273ffffffffffffffffffffffffffffffffffffffff16141561146c576040517f08c379a000000000000000000000000000000000000000000000000000000000815260040161146390612444565b60405180910390fd5b61147581611194565b156114b5576040517f08c379a00000000000000000000000000000000000000000000000000000000081526004016114ac906124b0565b60405180910390fd5b6114c160008383611200565b6001600360008473ffffffffffffffffffffffffffffffffffffffff1673ffffffffffffffffffffffffffffffffffffffff168152602001908152602001600020600082825461151191906120b8565b92505081905550816002600083815260200190815260200160002060006101000a81548173ffffffffffffffffffffffffffffffffffffffff021916908373ffffffffffffffffffffffffffffffffffffffff160217905550808273ffffffffffffffffffffffffffffffffffffffff16600073ffffffffffffffffffffffffffffffffffffffff167fddf252ad1be2c89b69c2b068fc378daa952ba7f163c4a11628f55a4df523b3ef60405160405180910390a46115d260008383611205565b5050565b6000808273ffffffffffffffffffffffffffffffffffffffff163b119050919050565b6000604051905090565b600080fd5b600080fd5b60007fffffffff0000000000000000000000000000000000000000000000000000000082169050919050565b6116428161160d565b811461164d57600080fd5b50565b60008135905061165f81611639565b92915050565b60006020828403121561167b5761167a611603565b5b600061168984828501611650565b91505092915050565b60008115159050919050565b6116a781611692565b82525050565b60006020820190506116c2600083018461169e565b92915050565b600081519050919050565b600082825260208201905092915050565b60005b838110156117025780820151818401526020810190506116e7565b83811115611711576000848401525b50505050565b6000601f19601f8301169050919050565b6000611733826116c8565b61173d81856116d3565b935061174d8185602086016116e4565b61175681611717565b840191505092915050565b6000602082019050818103600083015261177b8184611728565b905092915050565b6000819050919050565b61179681611783565b81146117a157600080fd5b50565b6000813590506117b38161178d565b92915050565b6000602082840312156117cf576117ce611603565b5b60006117dd848285016117a4565b91505092915050565b600073ffffffffffffffffffffffffffffffffffffffff82169050919050565b6000611811826117e6565b9050919050565b61182181611806565b82525050565b600060208201905061183c6000830184611818565b92915050565b61184b81611806565b811461185657600080fd5b50565b60008135905061186881611842565b92915050565b6000806040838503121561188557611884611603565b5b600061189385828601611859565b92505060206118a4858286016117a4565b9150509250929050565b6000806000606084860312156118c7576118c6611603565b5b60006118d586828701611859565b93505060206118e686828701611859565b92505060406118f7868287016117a4565b9150509250925092565b60006020828403121561191757611916611603565b5b600061192584828501611859565b91505092915050565b61193781611783565b82525050565b6000602082019050611952600083018461192e565b92915050565b61196181611692565b811461196c57600080fd5b50565b60008135905061197e81611958565b92915050565b6000806040838503121561199b5761199a611603565b5b60006119a985828601611859565b92505060206119ba8582860161196f565b9150509250929050565b600080fd5b600080fd5b7f4e487b7100000000000000000000000000000000000000000000000000000000600052604160045260246000fd5b611a0682611717565b810181811067ffffffffffffffff82111715611a2557611a246119ce565b5b80604052505050565b6000611a386115f9565b9050611a4482826119fd565b919050565b600067ffffffffffffffff821115611a6457611a636119ce565b5b611a6d82611717565b9050602081019050919050565b82818337600083830152505050565b6000611a9c611a9784611a49565b611a2e565b905082815260208101848484011115611ab857611ab76119c9565b5b611ac3848285611a7a565b509392505050565b600082601f830112611ae057611adf6119c4565b5b8135611af0848260208601611a89565b91505092915050565b60008060008060808587031215611b1357611b12611603565b5b6000611b2187828801611859565b9450506020611b3287828801611859565b9350506040611b43878288016117a4565b925050606085013567ffffffffffffffff811115611b6457611b63611608565b5b611b7087828801611acb565b91505092959194509250565b60008060408385031215611b9357611b92611603565b5b6000611ba185828601611859565b9250506020611bb285828601611859565b9150509250929050565b7f4e487b7100000000000000000000000000000000000000000000000000000000600052602260045260246000fd5b60006002820490506001821680611c0357607f821691505b60208210811415611c1757611c16611bbc565b5b50919050565b7f4552433732313a20617070726f76616c20746f2063757272656e74206f776e6560008201527f7200000000000000000000000000000000000000000000000000000000000000602082015250565b6000611c796021836116d3565b9150611c8482611c1d565b604082019050919050565b60006020820190508181036000830152611ca881611c6c565b9050919050565b7f4552433732313a20617070726f76652063616c6c6572206973206e6f7420746f60008201527f6b656e206f776e6572206e6f7220617070726f76656420666f7220616c6c0000602082015250565b6000611d0b603e836116d3565b9150611d1682611caf565b604082019050919050565b60006020820190508181036000830152611d3a81611cfe565b9050919050565b7f4552433732313a2063616c6c6572206973206e6f7420746f6b656e206f776e6560008201527f72206e6f7220617070726f766564000000000000000000000000000000000000602082015250565b6000611d9d602e836116d3565b9150611da882611d41565b604082019050919050565b60006020820190508181036000830152611dcc81611d90565b9050919050565b7f4552433732313a20696e76616c696420746f6b656e2049440000000000000000600082015250565b6000611e096018836116d3565b9150611e1482611dd3565b602082019050919050565b60006020820190508181036000830152611e3881611dfc565b9050919050565b7f4552433732313a2061646472657373207a65726f206973206e6f74206120766160008201527f6c6964206f776e65720000000000000000000000000000000000000000000000602082015250565b6000611e9b6029836116d3565b9150611ea682611e3f565b604082019050919050565b60006020820190508181036000830152611eca81611e8e565b9050919050565b600081905092915050565b6000611ee7826116c8565b611ef18185611ed1565b9350611f018185602086016116e4565b80840191505092915050565b6000611f198285611edc565b9150611f258284611edc565b91508190509392505050565b7f4552433732313a207472616e736665722066726f6d20696e636f72726563742060008201527f6f776e6572000000000000000000000000000000000000000000000000000000602082015250565b6000611f8d6025836116d3565b9150611f9882611f31565b604082019050919050565b60006020820190508181036000830152611fbc81611f80565b9050919050565b7f4552433732313a207472616e7366657220746f20746865207a65726f2061646460008201527f7265737300000000000000000000000000000000000000000000000000000000602082015250565b600061201f6024836116d3565b915061202a82611fc3565b604082019050919050565b6000602082019050818103600083015261204e81612012565b9050919050565b7f4e487b7100000000000000000000000000000000000000000000000000000000600052601160045260246000fd5b600061208f82611783565b915061209a83611783565b9250828210156120ad576120ac612055565b5b828203905092915050565b60006120c382611783565b91506120ce83611783565b9250827fffffffffffffffffffffffffffffffffffffffffffffffffffffffffffffffff0382111561210357612102612055565b5b828201905092915050565b7f4552433732313a20617070726f766520746f2063616c6c657200000000000000600082015250565b60006121446019836116d3565b915061214f8261210e565b602082019050919050565b6000602082019050818103600083015261217381612137565b9050919050565b7f4552433732313a207472616e7366657220746f206e6f6e20455243373231526560008201527f63656976657220696d706c656d656e7465720000000000000000000000000000602082015250565b60006121d66032836116d3565b91506121e18261217a565b604082019050919050565b60006020820190508181036000830152612205816121c9565b9050919050565b600061221782611783565b91507fffffffffffffffffffffffffffffffffffffffffffffffffffffffffffffffff82141561224a57612249612055565b5b600182019050919050565b7f4e487b7100000000000000000000000000000000000000000000000000000000600052601260045260246000fd5b600061228f82611783565b915061229a83611783565b9250826122aa576122a9612255565b5b828204905092915050565b60006122c082611783565b91506122cb83611783565b9250826122db576122da612255565b5b828206905092915050565b7f4e487b7100000000000000000000000000000000000000000000000000000000600052603260045260246000fd5b600081519050919050565b600082825260208201905092915050565b600061233c82612315565b6123468185612320565b93506123568185602086016116e4565b61235f81611717565b840191505092915050565b600060808201905061237f6000830187611818565b61238c6020830186611818565b612399604083018561192e565b81810360608301526123ab8184612331565b905095945050505050565b6000815190506123c581611639565b92915050565b6000602082840312156123e1576123e0611603565b5b60006123ef848285016123b6565b91505092915050565b7f4552433732313a206d696e7420746f20746865207a65726f2061646472657373600082015250565b600061242e6020836116d3565b9150612439826123f8565b602082019050919050565b6000602082019050818103600083015261245d81612421565b9050919050565b7f4552433732313a20746f6b656e20616c7265616479206d696e74656400000000600082015250565b600061249a601c836116d3565b91506124a582612464565b602082019050919050565b600060208201905081810360008301526124c98161248d565b905091905056fea26469706673582212201df010f95b6fedffac9af82c1831b2882f4d6bfa2dc05a7ec27cc34b19e06d6d64736f6c63430008090033",
  "linkReferences": {},
  "deployedLinkReferences": {}
}