{
  "_format": "hh-sol-artifact-1",
  "contractName": "evenOdd",
  "sourceName": "contracts/evenOdd.sol",
  "abi": [
    {
      "inputs": [
        {
          "internalType": "address",
          "name": "_inputNFT",
          "type": "address"
        }
      ],
      "stateMutability": "nonpayable",
      "type": "constructor"
    },
    {
      "anonymous": false,
      "inputs": [
        {
          "indexed": true,
          "internalType": "address",
          "name": "account",
          "type": "address"
        },
        {
          "indexed": true,
          "internalType": "address",
          "name": "operator",
          "type": "address"
        },
        {
          "indexed": false,
          "internalType": "bool",
          "name": "approved",
          "type": "bool"
        }
      ],
      "name": "ApprovalForAll",
      "type": "event"
    },
    {
      "anonymous": false,
      "inputs": [
        {
          "indexed": true,
          "internalType": "address",
          "name": "operator",
          "type": "address"
        },
        {
          "indexed": true,
          "internalType": "address",
          "name": "from",
          "type": "address"
        },
        {
          "indexed": true,
          "internalType": "address",
          "name": "to",
          "type": "address"
        },
        {
          "indexed": false,
          "internalType": "uint256[]",
          "name": "ids",
          "type": "uint256[]"
        },
        {
          "indexed": false,
          "internalType": "uint256[]",
          "name": "values",
          "type": "uint256[]"
        }
      ],
      "name": "TransferBatch",
      "type": "event"
    },
    {
      "anonymous": false,
      "inputs": [
        {
          "indexed": true,
          "internalType": "address",
          "name": "operator",
          "type": "address"
        },
        {
          "indexed": true,
          "internalType": "address",
          "name": "from",
          "type": "address"
        },
        {
          "indexed": true,
          "internalType": "address",
          "name": "to",
          "type": "address"
        },
        {
          "indexed": false,
          "internalType": "uint256",
          "name": "id",
          "type": "uint256"
        },
        {
          "indexed": false,
          "internalType": "uint256",
          "name": "value",
          "type": "uint256"
        }
      ],
      "name": "TransferSingle",
      "type": "event"
    },
    {
      "anonymous": false,
      "inputs": [
        {
          "indexed": false,
          "internalType": "string",
          "name": "value",
          "type": "string"
        },
        {
          "indexed": true,
          "internalType": "uint256",
          "name": "id",
          "type": "uint256"
        }
      ],
      "name": "URI",
      "type": "event"
    },
    {
      "inputs": [
        {
          "internalType": "address",
          "name": "account",
          "type": "address"
        },
        {
          "internalType": "uint256",
          "name": "id",
          "type": "uint256"
        }
      ],
      "name": "balanceOf",
      "outputs": [
        {
          "internalType": "uint256",
          "name": "",
          "type": "uint256"
        }
      ],
      "stateMutability": "view",
      "type": "function"
    },
    {
      "inputs": [
        {
          "internalType": "address[]",
          "name": "accounts",
          "type": "address[]"
        },
        {
          "internalType": "uint256[]",
          "name": "ids",
          "type": "uint256[]"
        }
      ],
      "name": "balanceOfBatch",
      "outputs": [
        {
          "internalType": "uint256[]",
          "name": "",
          "type": "uint256[]"
        }
      ],
      "stateMutability": "view",
      "type": "function"
    },
    {
      "inputs": [],
      "name": "inputNFT",
      "outputs": [
        {
          "internalType": "contract InterfaceERC721",
          "name": "",
          "type": "address"
        }
      ],
      "stateMutability": "view",
      "type": "function"
    },
    {
      "inputs": [
        {
          "internalType": "address",
          "name": "account",
          "type": "address"
        },
        {
          "internalType": "address",
          "name": "operator",
          "type": "address"
        }
      ],
      "name": "isApprovedForAll",
      "outputs": [
        {
          "internalType": "bool",
          "name": "",
          "type": "bool"
        }
      ],
      "stateMutability": "view",
      "type": "function"
    },
    {
      "inputs": [
        {
          "internalType": "address",
          "name": "from",
          "type": "address"
        },
        {
          "internalType": "address",
          "name": "to",
          "type": "address"
        },
        {
          "internalType": "uint256[]",
          "name": "ids",
          "type": "uint256[]"
        },
        {
          "internalType": "uint256[]",
          "name": "amounts",
          "type": "uint256[]"
        },
        {
          "internalType": "bytes",
          "name": "data",
          "type": "bytes"
        }
      ],
      "name": "safeBatchTransferFrom",
      "outputs": [],
      "stateMutability": "nonpayable",
      "type": "function"
    },
    {
      "inputs": [
        {
          "internalType": "address",
          "name": "from",
          "type": "address"
        },
        {
          "internalType": "address",
          "name": "to",
          "type": "address"
        },
        {
          "internalType": "uint256",
          "name": "id",
          "type": "uint256"
        },
        {
          "internalType": "uint256",
          "name": "amount",
          "type": "uint256"
        },
        {
          "internalType": "bytes",
          "name": "data",
          "type": "bytes"
        }
      ],
      "name": "safeTransferFrom",
      "outputs": [],
      "stateMutability": "nonpayable",
      "type": "function"
    },
    {
      "inputs": [
        {
          "internalType": "address",
          "name": "operator",
          "type": "address"
        },
        {
          "internalType": "bool",
          "name": "approved",
          "type": "bool"
        }
      ],
      "name": "setApprovalForAll",
      "outputs": [],
      "stateMutability": "nonpayable",
      "type": "function"
    },
    {
      "inputs": [
        {
          "internalType": "uint256",
          "name": "tokenId",
          "type": "uint256"
        }
      ],
      "name": "stakeNft",
      "outputs": [],
      "stateMutability": "nonpayable",
      "type": "function"
    },
    {
      "inputs": [
        {
          "internalType": "bytes4",
          "name": "interfaceId",
          "type": "bytes4"
        }
      ],
      "name": "supportsInterface",
      "outputs": [
        {
          "internalType": "bool",
          "name": "",
          "type": "bool"
        }
      ],
      "stateMutability": "view",
      "type": "function"
    },
    {
      "inputs": [
        {
          "internalType": "address",
          "name": "",
          "type": "address"
        }
      ],
      "name": "tokenIdNo",
      "outputs": [
        {
          "internalType": "uint256",
          "name": "tokenId",
          "type": "uint256"
        }
      ],
      "stateMutability": "view",
      "type": "function"
    },
    {
      "inputs": [
        {
          "internalType": "uint256",
          "name": "",
          "type": "uint256"
        }
      ],
      "name": "uri",
      "outputs": [
        {
          "internalType": "string",
          "name": "",
          "type": "string"
        }
      ],
      "stateMutability": "view",
      "type": "function"
    }
  ],
  "bytecode": "0x60806040523480156200001157600080fd5b50604051620030f1380380620030f18339818101604052810190620000379190620001d7565b604051806020016040528060008152506200005881620000a160201b60201c565b5080600360006101000a81548173ffffffffffffffffffffffffffffffffffffffff021916908373ffffffffffffffffffffffffffffffffffffffff160217905550506200026e565b8060029080519060200190620000b9929190620000bd565b5050565b828054620000cb9062000238565b90600052602060002090601f016020900481019282620000ef57600085556200013b565b82601f106200010a57805160ff19168380011785556200013b565b828001600101855582156200013b579182015b828111156200013a5782518255916020019190600101906200011d565b5b5090506200014a91906200014e565b5090565b5b80821115620001695760008160009055506001016200014f565b5090565b600080fd5b600073ffffffffffffffffffffffffffffffffffffffff82169050919050565b60006200019f8262000172565b9050919050565b620001b18162000192565b8114620001bd57600080fd5b50565b600081519050620001d181620001a6565b92915050565b600060208284031215620001f057620001ef6200016d565b5b60006200020084828501620001c0565b91505092915050565b7f4e487b7100000000000000000000000000000000000000000000000000000000600052602260045260246000fd5b600060028204905060018216806200025157607f821691505b6020821081141562000268576200026762000209565b5b50919050565b612e73806200027e6000396000f3fe608060405234801561001057600080fd5b50600436106100a85760003560e01c80634300f5e1116100715780634300f5e1146101895780634e1273f4146101a557806366f3a8bc146101d5578063a22cb465146101f3578063e985e9c51461020f578063f242432a1461023f576100a8565b8062fdd58e146100ad57806301ffc9a7146100dd5780630e89341c1461010d57806318fb21921461013d5780632eb2c2d61461016d575b600080fd5b6100c760048036038101906100c29190611a55565b61025b565b6040516100d49190611aa4565b60405180910390f35b6100f760048036038101906100f29190611b17565b610324565b6040516101049190611b5f565b60405180910390f35b61012760048036038101906101229190611b7a565b610406565b6040516101349190611c40565b60405180910390f35b61015760048036038101906101529190611c62565b61049a565b6040516101649190611aa4565b60405180910390f35b61018760048036038101906101829190611e8c565b6104b8565b005b6101a3600480360381019061019e9190611b7a565b610559565b005b6101bf60048036038101906101ba919061201e565b610898565b6040516101cc9190612154565b60405180910390f35b6101dd6109b1565b6040516101ea91906121d5565b60405180910390f35b61020d6004803603810190610208919061221c565b6109d7565b005b6102296004803603810190610224919061225c565b6109ed565b6040516102369190611b5f565b60405180910390f35b6102596004803603810190610254919061229c565b610a81565b005b60008073ffffffffffffffffffffffffffffffffffffffff168373ffffffffffffffffffffffffffffffffffffffff1614156102cc576040517f08c379a00000000000000000000000000000000000000000000000000000000081526004016102c3906123a5565b60405180910390fd5b60008083815260200190815260200160002060008473ffffffffffffffffffffffffffffffffffffffff1673ffffffffffffffffffffffffffffffffffffffff16815260200190815260200160002054905092915050565b60007fd9b67a26000000000000000000000000000000000000000000000000000000007bffffffffffffffffffffffffffffffffffffffffffffffffffffffff1916827bffffffffffffffffffffffffffffffffffffffffffffffffffffffff191614806103ef57507f0e89341c000000000000000000000000000000000000000000000000000000007bffffffffffffffffffffffffffffffffffffffffffffffffffffffff1916827bffffffffffffffffffffffffffffffffffffffffffffffffffffffff1916145b806103ff57506103fe82610b22565b5b9050919050565b606060028054610415906123f4565b80601f0160208091040260200160405190810160405280929190818152602001828054610441906123f4565b801561048e5780601f106104635761010080835404028352916020019161048e565b820191906000526020600020905b81548152906001019060200180831161047157829003601f168201915b50505050509050919050565b60046020528060005260406000206000915090508060000154905081565b6104c0610b8c565b73ffffffffffffffffffffffffffffffffffffffff168573ffffffffffffffffffffffffffffffffffffffff161480610506575061050585610500610b8c565b6109ed565b5b610545576040517f08c379a000000000000000000000000000000000000000000000000000000000815260040161053c90612498565b60405180910390fd5b6105528585858585610b94565b5050505050565b3373ffffffffffffffffffffffffffffffffffffffff16600360009054906101000a900473ffffffffffffffffffffffffffffffffffffffff1673ffffffffffffffffffffffffffffffffffffffff16636352211e836040518263ffffffff1660e01b81526004016105cb9190611aa4565b60206040518083038186803b1580156105e357600080fd5b505afa1580156105f7573d6000803e3d6000fd5b505050506040513d601f19601f8201168201806040525081019061061b91906124cd565b73ffffffffffffffffffffffffffffffffffffffff1614610671576040517f08c379a00000000000000000000000000000000000000000000000000000000081526004016106689061256c565b60405180910390fd5b6106af6040518060400160405280600e81526020017f6e6f74206576656e206f776e6572000000000000000000000000000000000000815250610eb6565b600360009054906101000a900473ffffffffffffffffffffffffffffffffffffffff1673ffffffffffffffffffffffffffffffffffffffff166323b872dd3330846040518463ffffffff1660e01b815260040161070e9392919061259b565b600060405180830381600087803b15801561072857600080fd5b505af115801561073c573d6000803e3d6000fd5b5050505061077e6040518060400160405280600181526020017f3200000000000000000000000000000000000000000000000000000000000000815250610eb6565b600060028261078d9190612601565b14156107f2576107af3360018060405180602001604052806000815250610f4f565b6107ed6040518060400160405280600181526020017f3100000000000000000000000000000000000000000000000000000000000000815250610eb6565b61084e565b61080f336002600160405180602001604052806000815250610f4f565b61084d6040518060400160405280600181526020017f3100000000000000000000000000000000000000000000000000000000000000815250610eb6565b5b80600460003373ffffffffffffffffffffffffffffffffffffffff1673ffffffffffffffffffffffffffffffffffffffff1681526020019081526020016000206000018190555050565b606081518351146108de576040517f08c379a00000000000000000000000000000000000000000000000000000000081526004016108d5906126a4565b60405180910390fd5b6000835167ffffffffffffffff8111156108fb576108fa611c94565b5b6040519080825280602002602001820160405280156109295781602001602082028036833780820191505090505b50905060005b84518110156109a65761097685828151811061094e5761094d6126c4565b5b6020026020010151858381518110610969576109686126c4565b5b602002602001015161025b565b828281518110610989576109886126c4565b5b6020026020010181815250508061099f90612722565b905061092f565b508091505092915050565b600360009054906101000a900473ffffffffffffffffffffffffffffffffffffffff1681565b6109e96109e2610b8c565b8383611100565b5050565b6000600160008473ffffffffffffffffffffffffffffffffffffffff1673ffffffffffffffffffffffffffffffffffffffff16815260200190815260200160002060008373ffffffffffffffffffffffffffffffffffffffff1673ffffffffffffffffffffffffffffffffffffffff16815260200190815260200160002060009054906101000a900460ff16905092915050565b610a89610b8c565b73ffffffffffffffffffffffffffffffffffffffff168573ffffffffffffffffffffffffffffffffffffffff161480610acf5750610ace85610ac9610b8c565b6109ed565b5b610b0e576040517f08c379a0000000000000000000000000000000000000000000000000000000008152600401610b0590612498565b60405180910390fd5b610b1b858585858561126d565b5050505050565b60007f01ffc9a7000000000000000000000000000000000000000000000000000000007bffffffffffffffffffffffffffffffffffffffffffffffffffffffff1916827bffffffffffffffffffffffffffffffffffffffffffffffffffffffff1916149050919050565b600033905090565b8151835114610bd8576040517f08c379a0000000000000000000000000000000000000000000000000000000008152600401610bcf906127dd565b60405180910390fd5b600073ffffffffffffffffffffffffffffffffffffffff168473ffffffffffffffffffffffffffffffffffffffff161415610c48576040517f08c379a0000000000000000000000000000000000000000000000000000000008152600401610c3f9061286f565b60405180910390fd5b6000610c52610b8c565b9050610c62818787878787611509565b60005b8451811015610e13576000858281518110610c8357610c826126c4565b5b602002602001015190506000858381518110610ca257610ca16126c4565b5b60200260200101519050600080600084815260200190815260200160002060008b73ffffffffffffffffffffffffffffffffffffffff1673ffffffffffffffffffffffffffffffffffffffff16815260200190815260200160002054905081811015610d43576040517f08c379a0000000000000000000000000000000000000000000000000000000008152600401610d3a90612901565b60405180910390fd5b81810360008085815260200190815260200160002060008c73ffffffffffffffffffffffffffffffffffffffff1673ffffffffffffffffffffffffffffffffffffffff168152602001908152602001600020819055508160008085815260200190815260200160002060008b73ffffffffffffffffffffffffffffffffffffffff1673ffffffffffffffffffffffffffffffffffffffff1681526020019081526020016000206000828254610df89190612921565b9250508190555050505080610e0c90612722565b9050610c65565b508473ffffffffffffffffffffffffffffffffffffffff168673ffffffffffffffffffffffffffffffffffffffff168273ffffffffffffffffffffffffffffffffffffffff167f4a39dc06d4c0dbc64b70af90fd698a233a518aa5d07e595d983b8c0526c8f7fb8787604051610e8a929190612977565b60405180910390a4610ea0818787878787611511565b610eae818787878787611519565b505050505050565b610f4c81604051602401610eca9190611c40565b6040516020818303038152906040527f41304fac000000000000000000000000000000000000000000000000000000007bffffffffffffffffffffffffffffffffffffffffffffffffffffffff19166020820180517bffffffffffffffffffffffffffffffffffffffffffffffffffffffff8381831617835250505050611700565b50565b600073ffffffffffffffffffffffffffffffffffffffff168473ffffffffffffffffffffffffffffffffffffffff161415610fbf576040517f08c379a0000000000000000000000000000000000000000000000000000000008152600401610fb690612a20565b60405180910390fd5b6000610fc9610b8c565b90506000610fd685611729565b90506000610fe385611729565b9050610ff483600089858589611509565b8460008088815260200190815260200160002060008973ffffffffffffffffffffffffffffffffffffffff1673ffffffffffffffffffffffffffffffffffffffff16815260200190815260200160002060008282546110539190612921565b925050819055508673ffffffffffffffffffffffffffffffffffffffff16600073ffffffffffffffffffffffffffffffffffffffff168473ffffffffffffffffffffffffffffffffffffffff167fc3d58168c5ae7397731d063d5bbf3d657854427343f4c083240f7aacaa2d0f6289896040516110d1929190612a40565b60405180910390a46110e883600089858589611511565b6110f7836000898989896117a3565b50505050505050565b8173ffffffffffffffffffffffffffffffffffffffff168373ffffffffffffffffffffffffffffffffffffffff16141561116f576040517f08c379a000000000000000000000000000000000000000000000000000000000815260040161116690612adb565b60405180910390fd5b80600160008573ffffffffffffffffffffffffffffffffffffffff1673ffffffffffffffffffffffffffffffffffffffff16815260200190815260200160002060008473ffffffffffffffffffffffffffffffffffffffff1673ffffffffffffffffffffffffffffffffffffffff16815260200190815260200160002060006101000a81548160ff0219169083151502179055508173ffffffffffffffffffffffffffffffffffffffff168373ffffffffffffffffffffffffffffffffffffffff167f17307eab39ab6107e8899845ad3d59bd9653f200f220920489ca2b5937696c31836040516112609190611b5f565b60405180910390a3505050565b600073ffffffffffffffffffffffffffffffffffffffff168473ffffffffffffffffffffffffffffffffffffffff1614156112dd576040517f08c379a00000000000000000000000000000000000000000000000000000000081526004016112d49061286f565b60405180910390fd5b60006112e7610b8c565b905060006112f485611729565b9050600061130185611729565b9050611311838989858589611509565b600080600088815260200190815260200160002060008a73ffffffffffffffffffffffffffffffffffffffff1673ffffffffffffffffffffffffffffffffffffffff168152602001908152602001600020549050858110156113a8576040517f08c379a000000000000000000000000000000000000000000000000000000000815260040161139f90612901565b60405180910390fd5b85810360008089815260200190815260200160002060008b73ffffffffffffffffffffffffffffffffffffffff1673ffffffffffffffffffffffffffffffffffffffff168152602001908152602001600020819055508560008089815260200190815260200160002060008a73ffffffffffffffffffffffffffffffffffffffff1673ffffffffffffffffffffffffffffffffffffffff168152602001908152602001600020600082825461145d9190612921565b925050819055508773ffffffffffffffffffffffffffffffffffffffff168973ffffffffffffffffffffffffffffffffffffffff168573ffffffffffffffffffffffffffffffffffffffff167fc3d58168c5ae7397731d063d5bbf3d657854427343f4c083240f7aacaa2d0f628a8a6040516114da929190612a40565b60405180910390a46114f0848a8a86868a611511565b6114fe848a8a8a8a8a6117a3565b505050505050505050565b505050505050565b505050505050565b6115388473ffffffffffffffffffffffffffffffffffffffff1661198a565b156116f8578373ffffffffffffffffffffffffffffffffffffffff1663bc197c8187878686866040518663ffffffff1660e01b815260040161157e959493929190612b50565b602060405180830381600087803b15801561159857600080fd5b505af19250505080156115c957506040513d601f19601f820116820180604052508101906115c69190612bcd565b60015b61166f576115d5612c07565b806308c379a0141561163257506115ea612c29565b806115f55750611634565b806040517f08c379a00000000000000000000000000000000000000000000000000000000081526004016116299190611c40565b60405180910390fd5b505b6040517f08c379a000000000000000000000000000000000000000000000000000000000815260040161166690612d31565b60405180910390fd5b63bc197c8160e01b7bffffffffffffffffffffffffffffffffffffffffffffffffffffffff1916817bffffffffffffffffffffffffffffffffffffffffffffffffffffffff1916146116f6576040517f08c379a00000000000000000000000000000000000000000000000000000000081526004016116ed90612dc3565b60405180910390fd5b505b505050505050565b60008151905060006a636f6e736f6c652e6c6f679050602083016000808483855afa5050505050565b60606000600167ffffffffffffffff81111561174857611747611c94565b5b6040519080825280602002602001820160405280156117765781602001602082028036833780820191505090505b509050828160008151811061178e5761178d6126c4565b5b60200260200101818152505080915050919050565b6117c28473ffffffffffffffffffffffffffffffffffffffff1661198a565b15611982578373ffffffffffffffffffffffffffffffffffffffff1663f23a6e6187878686866040518663ffffffff1660e01b8152600401611808959493929190612de3565b602060405180830381600087803b15801561182257600080fd5b505af192505050801561185357506040513d601f19601f820116820180604052508101906118509190612bcd565b60015b6118f95761185f612c07565b806308c379a014156118bc5750611874612c29565b8061187f57506118be565b806040517f08c379a00000000000000000000000000000000000000000000000000000000081526004016118b39190611c40565b60405180910390fd5b505b6040517f08c379a00000000000000000000000000000000000000000000000000000000081526004016118f090612d31565b60405180910390fd5b63f23a6e6160e01b7bffffffffffffffffffffffffffffffffffffffffffffffffffffffff1916817bffffffffffffffffffffffffffffffffffffffffffffffffffffffff191614611980576040517f08c379a000000000000000000000000000000000000000000000000000000000815260040161197790612dc3565b60405180910390fd5b505b505050505050565b6000808273ffffffffffffffffffffffffffffffffffffffff163b119050919050565b6000604051905090565b600080fd5b600080fd5b600073ffffffffffffffffffffffffffffffffffffffff82169050919050565b60006119ec826119c1565b9050919050565b6119fc816119e1565b8114611a0757600080fd5b50565b600081359050611a19816119f3565b92915050565b6000819050919050565b611a3281611a1f565b8114611a3d57600080fd5b50565b600081359050611a4f81611a29565b92915050565b60008060408385031215611a6c57611a6b6119b7565b5b6000611a7a85828601611a0a565b9250506020611a8b85828601611a40565b9150509250929050565b611a9e81611a1f565b82525050565b6000602082019050611ab96000830184611a95565b92915050565b60007fffffffff0000000000000000000000000000000000000000000000000000000082169050919050565b611af481611abf565b8114611aff57600080fd5b50565b600081359050611b1181611aeb565b92915050565b600060208284031215611b2d57611b2c6119b7565b5b6000611b3b84828501611b02565b91505092915050565b60008115159050919050565b611b5981611b44565b82525050565b6000602082019050611b746000830184611b50565b92915050565b600060208284031215611b9057611b8f6119b7565b5b6000611b9e84828501611a40565b91505092915050565b600081519050919050565b600082825260208201905092915050565b60005b83811015611be1578082015181840152602081019050611bc6565b83811115611bf0576000848401525b50505050565b6000601f19601f8301169050919050565b6000611c1282611ba7565b611c1c8185611bb2565b9350611c2c818560208601611bc3565b611c3581611bf6565b840191505092915050565b60006020820190508181036000830152611c5a8184611c07565b905092915050565b600060208284031215611c7857611c776119b7565b5b6000611c8684828501611a0a565b91505092915050565b600080fd5b7f4e487b7100000000000000000000000000000000000000000000000000000000600052604160045260246000fd5b611ccc82611bf6565b810181811067ffffffffffffffff82111715611ceb57611cea611c94565b5b80604052505050565b6000611cfe6119ad565b9050611d0a8282611cc3565b919050565b600067ffffffffffffffff821115611d2a57611d29611c94565b5b602082029050602081019050919050565b600080fd5b6000611d53611d4e84611d0f565b611cf4565b90508083825260208201905060208402830185811115611d7657611d75611d3b565b5b835b81811015611d9f5780611d8b8882611a40565b845260208401935050602081019050611d78565b5050509392505050565b600082601f830112611dbe57611dbd611c8f565b5b8135611dce848260208601611d40565b91505092915050565b600080fd5b600067ffffffffffffffff821115611df757611df6611c94565b5b611e0082611bf6565b9050602081019050919050565b82818337600083830152505050565b6000611e2f611e2a84611ddc565b611cf4565b905082815260208101848484011115611e4b57611e4a611dd7565b5b611e56848285611e0d565b509392505050565b600082601f830112611e7357611e72611c8f565b5b8135611e83848260208601611e1c565b91505092915050565b600080600080600060a08688031215611ea857611ea76119b7565b5b6000611eb688828901611a0a565b9550506020611ec788828901611a0a565b945050604086013567ffffffffffffffff811115611ee857611ee76119bc565b5b611ef488828901611da9565b935050606086013567ffffffffffffffff811115611f1557611f146119bc565b5b611f2188828901611da9565b925050608086013567ffffffffffffffff811115611f4257611f416119bc565b5b611f4e88828901611e5e565b9150509295509295909350565b600067ffffffffffffffff821115611f7657611f75611c94565b5b602082029050602081019050919050565b6000611f9a611f9584611f5b565b611cf4565b90508083825260208201905060208402830185811115611fbd57611fbc611d3b565b5b835b81811015611fe65780611fd28882611a0a565b845260208401935050602081019050611fbf565b5050509392505050565b600082601f83011261200557612004611c8f565b5b8135612015848260208601611f87565b91505092915050565b60008060408385031215612035576120346119b7565b5b600083013567ffffffffffffffff811115612053576120526119bc565b5b61205f85828601611ff0565b925050602083013567ffffffffffffffff8111156120805761207f6119bc565b5b61208c85828601611da9565b9150509250929050565b600081519050919050565b600082825260208201905092915050565b6000819050602082019050919050565b6120cb81611a1f565b82525050565b60006120dd83836120c2565b60208301905092915050565b6000602082019050919050565b600061210182612096565b61210b81856120a1565b9350612116836120b2565b8060005b8381101561214757815161212e88826120d1565b9750612139836120e9565b92505060018101905061211a565b5085935050505092915050565b6000602082019050818103600083015261216e81846120f6565b905092915050565b6000819050919050565b600061219b612196612191846119c1565b612176565b6119c1565b9050919050565b60006121ad82612180565b9050919050565b60006121bf826121a2565b9050919050565b6121cf816121b4565b82525050565b60006020820190506121ea60008301846121c6565b92915050565b6121f981611b44565b811461220457600080fd5b50565b600081359050612216816121f0565b92915050565b60008060408385031215612233576122326119b7565b5b600061224185828601611a0a565b925050602061225285828601612207565b9150509250929050565b60008060408385031215612273576122726119b7565b5b600061228185828601611a0a565b925050602061229285828601611a0a565b9150509250929050565b600080600080600060a086880312156122b8576122b76119b7565b5b60006122c688828901611a0a565b95505060206122d788828901611a0a565b94505060406122e888828901611a40565b93505060606122f988828901611a40565b925050608086013567ffffffffffffffff81111561231a576123196119bc565b5b61232688828901611e5e565b9150509295509295909350565b7f455243313135353a2061646472657373207a65726f206973206e6f742061207660008201527f616c6964206f776e657200000000000000000000000000000000000000000000602082015250565b600061238f602a83611bb2565b915061239a82612333565b604082019050919050565b600060208201905081810360008301526123be81612382565b9050919050565b7f4e487b7100000000000000000000000000000000000000000000000000000000600052602260045260246000fd5b6000600282049050600182168061240c57607f821691505b602082108114156124205761241f6123c5565b5b50919050565b7f455243313135353a2063616c6c6572206973206e6f7420746f6b656e206f776e60008201527f6572206e6f7220617070726f7665640000000000000000000000000000000000602082015250565b6000612482602f83611bb2565b915061248d82612426565b604082019050919050565b600060208201905081810360008301526124b181612475565b9050919050565b6000815190506124c7816119f3565b92915050565b6000602082840312156124e3576124e26119b7565b5b60006124f1848285016124b8565b91505092915050565b7f596f7520617265206e6f7420746865206f776e6572206f662074686174204e4660008201527f5400000000000000000000000000000000000000000000000000000000000000602082015250565b6000612556602183611bb2565b9150612561826124fa565b604082019050919050565b6000602082019050818103600083015261258581612549565b9050919050565b612595816119e1565b82525050565b60006060820190506125b0600083018661258c565b6125bd602083018561258c565b6125ca6040830184611a95565b949350505050565b7f4e487b7100000000000000000000000000000000000000000000000000000000600052601260045260246000fd5b600061260c82611a1f565b915061261783611a1f565b925082612627576126266125d2565b5b828206905092915050565b7f455243313135353a206163636f756e747320616e6420696473206c656e67746860008201527f206d69736d617463680000000000000000000000000000000000000000000000602082015250565b600061268e602983611bb2565b915061269982612632565b604082019050919050565b600060208201905081810360008301526126bd81612681565b9050919050565b7f4e487b7100000000000000000000000000000000000000000000000000000000600052603260045260246000fd5b7f4e487b7100000000000000000000000000000000000000000000000000000000600052601160045260246000fd5b600061272d82611a1f565b91507fffffffffffffffffffffffffffffffffffffffffffffffffffffffffffffffff8214156127605761275f6126f3565b5b600182019050919050565b7f455243313135353a2069647320616e6420616d6f756e7473206c656e6774682060008201527f6d69736d61746368000000000000000000000000000000000000000000000000602082015250565b60006127c7602883611bb2565b91506127d28261276b565b604082019050919050565b600060208201905081810360008301526127f6816127ba565b9050919050565b7f455243313135353a207472616e7366657220746f20746865207a65726f20616460008201527f6472657373000000000000000000000000000000000000000000000000000000602082015250565b6000612859602583611bb2565b9150612864826127fd565b604082019050919050565b600060208201905081810360008301526128888161284c565b9050919050565b7f455243313135353a20696e73756666696369656e742062616c616e636520666f60008201527f72207472616e7366657200000000000000000000000000000000000000000000602082015250565b60006128eb602a83611bb2565b91506128f68261288f565b604082019050919050565b6000602082019050818103600083015261291a816128de565b9050919050565b600061292c82611a1f565b915061293783611a1f565b9250827fffffffffffffffffffffffffffffffffffffffffffffffffffffffffffffffff0382111561296c5761296b6126f3565b5b828201905092915050565b6000604082019050818103600083015261299181856120f6565b905081810360208301526129a581846120f6565b90509392505050565b7f455243313135353a206d696e7420746f20746865207a65726f2061646472657360008201527f7300000000000000000000000000000000000000000000000000000000000000602082015250565b6000612a0a602183611bb2565b9150612a15826129ae565b604082019050919050565b60006020820190508181036000830152612a39816129fd565b9050919050565b6000604082019050612a556000830185611a95565b612a626020830184611a95565b9392505050565b7f455243313135353a2073657474696e6720617070726f76616c2073746174757360008201527f20666f722073656c660000000000000000000000000000000000000000000000602082015250565b6000612ac5602983611bb2565b9150612ad082612a69565b604082019050919050565b60006020820190508181036000830152612af481612ab8565b9050919050565b600081519050919050565b600082825260208201905092915050565b6000612b2282612afb565b612b2c8185612b06565b9350612b3c818560208601611bc3565b612b4581611bf6565b840191505092915050565b600060a082019050612b65600083018861258c565b612b72602083018761258c565b8181036040830152612b8481866120f6565b90508181036060830152612b9881856120f6565b90508181036080830152612bac8184612b17565b90509695505050505050565b600081519050612bc781611aeb565b92915050565b600060208284031215612be357612be26119b7565b5b6000612bf184828501612bb8565b91505092915050565b60008160e01c9050919050565b600060033d1115612c265760046000803e612c23600051612bfa565b90505b90565b600060443d1015612c3957612cbc565b612c416119ad565b60043d036004823e80513d602482011167ffffffffffffffff82111715612c69575050612cbc565b808201805167ffffffffffffffff811115612c875750505050612cbc565b80602083010160043d038501811115612ca4575050505050612cbc565b612cb382602001850186611cc3565b82955050505050505b90565b7f455243313135353a207472616e7366657220746f206e6f6e204552433131353560008201527f526563656976657220696d706c656d656e746572000000000000000000000000602082015250565b6000612d1b603483611bb2565b9150612d2682612cbf565b604082019050919050565b60006020820190508181036000830152612d4a81612d0e565b9050919050565b7f455243313135353a204552433131353552656365697665722072656a6563746560008201527f6420746f6b656e73000000000000000000000000000000000000000000000000602082015250565b6000612dad602883611bb2565b9150612db882612d51565b604082019050919050565b60006020820190508181036000830152612ddc81612da0565b9050919050565b600060a082019050612df8600083018861258c565b612e05602083018761258c565b612e126040830186611a95565b612e1f6060830185611a95565b8181036080830152612e318184612b17565b9050969550505050505056fea2646970667358221220845ada325706442e6f079f02c3084cac955638391cfedb0e426bcc0abc9596fa64736f6c63430008090033",
  "linkReferences": {},
  "deployedLinkReferences": {}
}